:020000040800F2
:100000000000062045280208FDC2000801C30008C0
:1000100005C3000809C300080DC300080000000064
:1000200000000000000000000000000011C30008F4
:1000300015C300080000000019C300081DC3000814
:100040008D2802088D2802088D2802088D280208B4
:100050008D2802088D2802088D2802088D280208A4
:100060008D2802088D2802088D2802088D28020894
:100070008D2802088D2802088D2802088D28020884
:100080008D2802088D2802088D2802088D28020874
:100090008D2802088D2802088D2802088D28020864
:1000A0008D2802088D2802088D2802088D28020854
:1000B0008D2802088D2802088D2802088D28020844
:1000C0008D2802088D2802088D2802088D28020834
:1000D0008D2802088D2802088D2802088D28020824
:1000E0008D2802088D2802088D2802088D28020814
:1000F0008D2802088D2802088D2802088D28020804
:100100008D2802088D2802088D2802088D280208F3
:100110008D2802088D2802088D2802088D280208E3
:100120008D2802088D2802088D2802088D280208D3
:100130008D2802088D2802088D2802088D280208C3
:100140008D2802088D2802088D2802082DC300087A
:100150008D2802088D280208000000008D28020862
:100160008D2802088D280208000000000000000011
:100170008D28020831C300088D2802080000000005
:10018000000000008D2802088D2802088D28020832
:100190008D280208000000000000000000000000A0
:1001A0000000000000000000000000008D28020890
:1001B0008D280208000000008D28020800000000C1
:1001C000000000000000000000000000000000002F
:1001D00000000000000000008D2802088D280208A1
:1001E0008D2802088D2802088D2802088D28020813
:1001F0008D2802088D2802088D2802088D28020803
:0C0200008D2802088D2802088D280208B5
:1002100081F0004102E000BF83F0004330B54FEAB7
:1002200041044FEA430594EA050F08BF90EA020F24
:100230001FBF54EA000C55EA020C7FEA645C7FEAB7
:10024000655C00F0E2804FEA5454D4EB5555B8BFDA
:100250006D420CDD2C4480EA020281EA030382EA4B
:10026000000083EA010180EA020281EA0303362DDD
:1002700088BF30BD11F0004F4FEA01314FF4801CB0
:100280004CEA113102D0404261EB410113F0004FC2
:100290004FEA03334CEA133302D0524263EB430379
:1002A00094EA050F00F0A780A4F10104D5F1200E17
:1002B0000DDB02FA0EFC22FA05F2801841F1000172
:1002C00003FA0EF2801843FA05F359410EE0A5F146
:1002D00020050EF1200E012A03FA0EFC28BF4CF077
:1002E000020C43FA05F3C01851EBE37101F000452D
:1002F00007D54FF0000EDCF1000C7EEB00006EEB3A
:100300000101B1F5801F1BD3B1F5001F0CD34908C3
:100310005FEA30004FEA3C0C04F101044FEA44521A
:1003200012F5800F80F09A80BCF1004F08BF5FEAA1
:10033000500C50F1000041EB045141EA050130BD81
:100340005FEA4C0C404141EB0101013C28BFB1F593
:10035000801FE9D291F0000F04BF01460020B1FADE
:1003600081F308BF2033A3F10B03B3F120020CDAB1
:100370000C3208DD02F1140CC2F10C0201FA0CF08F
:1003800021FA02F10CE002F11402D8BFC2F1200CF4
:1003900001FA02F120FA0CFCDCBF41EA0C019040AA
:1003A000E41AA2BF01EB0451294330BD6FEA0404F3
:1003B0001F3C1CDA0C340EDC04F11404C4F12002DE
:1003C00020FA04F001FA02F340EA030021FA04F3F0
:1003D00045EA030130BDC4F10C04C4F1200220FA47
:1003E00002F001FA04F340EA0300294630BD21FA85
:1003F00004F0294630BD94F0000F83F4801306BF4B
:1004000081F480110134013D4EE77FEA645C18BF3E
:100410007FEA655C29D094EA050F08BF90EA020FD5
:1004200005D054EA000C04BF1946104630BD91EACD
:10043000030F1EBF0021002030BD5FEA545C05D1D0
:100440004000494128BF41F0004130BD14F580040F
:100450003CBF01F5801130BD01F0004545F0FE4183
:1004600041F470014FF0000030BD7FEA645C1ABFB8
:10047000194610467FEA655C1CBF0B46024650EAEF
:10048000013406BF52EA033591EA030F41F400211B
:1004900030BD00BF90F0000F04BF0021704730B5A1
:1004A0004FF4806404F132044FF000054FF0000176
:1004B00050E700BF90F0000F04BF0021704730B537
:1004C0004FF4806404F1320410F0004548BF40420C
:1004D0004FF000013EE700BF42004FEAE2014FEA61
:1004E00031014FEA02701FBF12F07F4393F07F4F3C
:1004F00081F06051704732F07F4208BF704793F03F
:100500007F4F04BF41F40021704730B54FF4607451
:1005100001F0004521F000411CE700BF50EA010254
:1005200008BF704730B54FF000050AE050EA0102FD
:1005300008BF704730B511F0004502D5404261EB6D
:1005400041014FF4806404F132045FEA915C3FF4AE
:10055000D8AE4FF003025FEADC0C18BF03325FEA4B
:10056000DC0C18BF033202EBDC02C2F1200300FAFC
:1005700003FC20FA02F001FA03FE40EA0E0021FA21
:1005800002F11444BDE600BF4FEA4102B2F1E0437C
:1005900024BFB3F5001CDCF1FE5C0DD901F0004C6A
:1005A0004FEAC0024CEA5070B2F1004F40EB8300BA
:1005B00008BF20F00100704711F0804F21D113F1E6
:1005C0003872BCBF01F00040704741F480114FEA1F
:1005D0005252C2F11802C2F1200C10FA0CF320FAA8
:1005E00002F018BF40F001004FEAC1234FEAD323C5
:1005F00003FA0CFC40EA0C0023FA02F34FEA43032F
:10060000CCE77FEA625307D150EA01331EBF4FF0B7
:10061000FE4040F44000704701F0004040F0FE40D2
:1006200040F40000704700BF53B94AB9002908BF21
:1006300000281CBF4FF0FF314FF0FF3000F00CB826
:10064000ADF1080C6DE904CE24F05EFDDDF804E0A8
:10065000DDE9022304B07047704700BFEC46A0E814
:10066000F05F80EC108B4FF000007047B0E8F05F57
:10067000E54690EC108B080008BF0120704700BFD2
:1006800010F8012B11F8013B012A28BF9A42F7D03C
:10069000D01A7047000000000000000000000000B9
:1006A00001F0FF01102A2BDB10F0070F08D010F823
:1006B000013B013A8B422DD010F0070F42B3F6D127
:1006C000F0B441EA012141EA014122F007047FF040
:1006D00000070023F0E80256083C85EA010586EA97
:1006E000010685FA47F5A3FA87F586FA47F6A5FAD3
:1006F00087F68EB9EED1F0BC01F0FF0102F00702DF
:1007000032B110F8013B013A83EA010313B1F8D189
:100710000020704701387047002D06BF354603386A
:10072000073815F0010F07D1013015F4807F02BFA3
:10073000013015F4C03F0130F0BC0138704700BFF4
:10074000034613F8012B002AFBD1181A0138704711
:1007500070B54FF0FF0C4CF4E06C1CEA11541DBF57
:100760001CEA135594EA0C0F95EA0C0F00F0DEF822
:100770002C4481EA030621EA4C5123EA4C5350EA07
:10078000013518BF52EA033541F4801143F4801358
:1007900038D0A0FB02CE4FF00005E1FB02E506F0E9
:1007A0000042E0FB03E54FF00006E1FB03569CF03E
:1007B000000F18BF4EF0010EA4F1FF04B6F5007F44
:1007C00064F5407404D25FEA4E0E6D4146EB0606B6
:1007D00042EAC62141EA55514FEAC52040EA5E503F
:1007E0004FEACE2EB4F1FD0C88BFBCF5E06F1ED8E9
:1007F000BEF1004F08BF5FEA500E50F1000041EB20
:10080000045170BD06F0004646EA010140EA0200CC
:1008100081EA0301B4EB5C04C2BFD4EB0C0541EAEE
:10082000045170BD41F480114FF0000E013C00F303
:10083000AB8014F1360FDEBF002001F0004170BD27
:10084000C4F10004203C35DA0C341BDC04F1140440
:10085000C4F1200500FA05F320FA04F001FA05F2CC
:1008600040EA020001F0004221F0004110EBD37099
:1008700021FA04F642EB06015EEA430E08BF20EAC5
:10088000D37070BDC4F10C04C4F1200500FA04F368
:1008900020FA05F001FA04F240EA020001F00041FA
:1008A00010EBD37041F100015EEA430E08BF20EA6D
:1008B000D37070BDC4F1200500FA05F24EEA020EB5
:1008C00020FA04F301FA05F243EA020321FA04F0E4
:1008D00001F0004121FA04F220EA020000EBD3709B
:1008E0005EEA430E08BF20EAD37070BD94F0000F9B
:1008F0000FD101F00046400041EB010111F4801FCF
:1009000008BF013CF7D041EA060195F0000F18BF7F
:10091000704703F00046520043EB030313F4801FBB
:1009200008BF013DF7D043EA0603704794EA0C0F75
:100930000CEA135518BF95EA0C0F0CD050EA41068B
:1009400018BF52EA4306D1D181EA030101F0004108
:100950004FF0000070BD50EA410606BF1046194630
:1009600052EA430619D094EA0C0F02D150EA01363C
:1009700013D195EA0C0F05D152EA03361CBF10467D
:1009800019460AD181EA030101F0004141F0FE411C
:1009900041F470014FF0000070BD41F0FE4141F4A0
:1009A000780170BD70B54FF0FF0C4CF4E06C1CEAA0
:1009B00011541DBF1CEA135594EA0C0F95EA0C0F55
:1009C00000F0A7F8A4EB050481EA030E52EA033510
:1009D0004FEA013100F088804FEA03334FF0805531
:1009E00045EA131343EA12634FEA022245EA11155E
:1009F00045EA10654FEA00260EF000419D4208BF0F
:100A0000964244F1FD0404F5407402D25B084FEABB
:100A10003202B61A65EB03055B084FEA32024FF467
:100A200080104FF4002CB6EB020E75EB030E22BFC4
:100A3000B61A754640EA0C005B084FEA3202B6EB84
:100A4000020E75EB030E22BFB61A754640EA5C0033
:100A50005B084FEA3202B6EB020E75EB030E22BFC3
:100A6000B61A754640EA9C005B084FEA3202B6EBC4
:100A7000020E75EB030E22BFB61A754640EADC0083
:100A800055EA060E18D04FEA051545EA16754FEAE5
:100A900006164FEAC30343EA52734FEAC2025FEA03
:100AA0001C1CC0D111F4801F0BD141EA00014FF092
:100AB00000004FF0004CB6E711F4801F04BF014363
:100AC0000020B4F1FD0C88BFBCF5E06F3FF6AFAE7F
:100AD000B5EB030C04BFB6EB020C5FEA500C50F10F
:100AE000000041EB045170BD0EF0004E4EEA113192
:100AF00014EB5C04C2BFD4EB0C0541EA045170BD99
:100B000041F480114FF0000E013C90E645EA060EDC
:100B10008DE60CEA135594EA0C0F08BF95EA0C0F0A
:100B20003FF43BAF94EA0C0F0AD150EA01347FF452
:100B300034AF95EA0C0F7FF425AF104619462CE729
:100B400095EA0C0F06D152EA03353FF4FDAE10468C
:100B5000194622E750EA410618BF52EA43067FF4DD
:100B6000C5AE50EA41047FF40DAF52EA43057FF46D
:100B7000EBAE12E74FF0FF3C06E000BF4FF0010C78
:100B800002E000BF4FF0010C4DF804CD4FEA410CDC
:100B90007FEA6C5C4FEA430C18BF7FEA6C5C1BD0A9
:100BA00001B050EA410C0CBF52EA430C91EA030F2A
:100BB00002BF90EA020F0020704710F1000F91EA87
:100BC000030F58BF994208BF90422CBFD8176FEA55
:100BD000E37040F0010070474FEA410C7FEA6C5C23
:100BE00002D150EA013C07D14FEA430C7FEA6C5C2A
:100BF000D6D152EA033CD3D05DF8040B704700BF56
:100C00008446104662468C461946634600E000BFA3
:100C100001B5FFF7B7FF002848BF10F1000F01BD75
:100C20004DF808EDFFF7F4FF0CBF012000205DF840
:100C300008FB00BF4DF808EDFFF7EAFF34BF0120C5
:100C400000205DF808FB00BF4DF808EDFFF7E0FF5E
:100C500094BF012000205DF808FB00BF4DF808EDAF
:100C6000FFF7CEFF94BF012000205DF808FB00BF16
:100C70004DF808EDFFF7C4FF34BF012000205DF8F8
:100C800008FB00BF4FEA410C7FEA6C5C02D150EADE
:100C9000013C0AD14FEA430C7FEA6C5C02D152EA74
:100CA000033C02D14FF0000070474FF00100704745
:100CB0004FEA410212F5001215D211D56FF4787384
:100CC000B3EB625212D94FEAC12343F0004343EA27
:100CD000505311F0004F23FA02F018BF4042704702
:100CE0004FF00000704750EA013005D111F000408C
:100CF00008BF6FF0004070474FF00000704700BF22
:100D00004A0011D212F5001211D20DD56FF478738A
:100D1000B3EB62520ED44FEAC12343F0004343EADF
:100D2000505323FA02F070474FF00000704750EA2A
:100D3000013002D14FF0FF3070474FF00000704794
:100D400000F1340191E838009C46A6464CF8045D59
:100D500090E8FF0FE54600BD90EC210B704700BF07
:100D600080EC210B704700BF90EC200B704700BF58
:100D700080EC200B704700BFD0EC200B704700BF09
:100D8000C0EC200B704700BFF0EC0201F0EC021148
:100D9000F0EC0221F0EC0231F0EC0241F0EC0251F7
:100DA000F0EC0261F0EC0271F0EC0281F0EC0291E7
:100DB000F0EC02A1F0EC02B1F0EC02C1F0EC02D1D7
:100DC000F0EC02E1F0EC02F1704700BFE0EC020150
:100DD000E0EC0211E0EC0221E0EC0231E0EC024137
:100DE000E0EC0251E0EC0261E0EC0271E0EC028127
:100DF000E0EC0291E0EC02A1E0EC02B1E0EC02C117
:100E0000E0EC02D1E0EC02E1E0EC02F1704700BF5F
:100E1000B0FC0181B0FC0191B0FC01A1B0FC01B1BA
:100E2000704700BFA0FC0181A0FC0191A0FC01A1C2
:100E3000A0FC01B1704700BFEC4600B52DE90050A1
:100E40002DE9FF1F4FF000030CB401A929F0C4FCE9
:100E5000DDF840E012B07047EC4600B52DE90050D7
:100E60002DE9FF1F4FF000030CB401A929F0F4FC99
:100E7000DDF840E012B07047EC4600B52DE90050B7
:100E80002DE9FF1F4FF000030CB401A929F006FD66
:100E9000DDF840E012B07047EC4600B52DE9005097
:100EA0002DE9FF1F4FF000030CB401AB29F0CCFC7F
:100EB000DDF840E012B07047EC4600B52DE9005077
:100EC0002DE9FF1F4FF000030CB401AA29F03EFDED
:100ED000DDF840E012B070470348044B834202D073
:100EE000034B03B118477047F8030020F8030020B4
:100EF000000000000548064B1B1AD90F01EBA301A7
:100F0000491002D0034B03B118477047F803002083
:100F1000F80300200000000010B5064C237843B908
:100F2000FFF7DAFF044B13B10448AFF3008001234D
:100F3000237010BDF80300200000000090B30208E9
:100F400008B5054B1BB105490548AFF30080BDE866
:100F50000840FFF7CFBF00BF00000000FC030020E7
:100F600090B302081F4A2049D2F8883043F4700336
:100F7000C2F888300B6843F001030B600B689B07D5
:100F8000FCD58B68184A23F003038B60936813F039
:100F90000C0FC3F38101F9D11368144823F0867351
:100FA00023F48033136091605060D2F8A03043F492
:100FB0008043C2F8A030BFF36F8FD2F8A03061F346
:100FC0000C33C2F8A030BFF36F8FC2F8A010BFF38C
:100FD0006F8F044B4FF41F004FF00061D060996099
:100FE000704700BF00ED00E000380240023003000F
:100FF00008B500F0B1F920B302280AD01648174B03
:1010000017499B68174AC3F30313CB5CD8401060A1
:1010100008BD124BDFF854C05A6859685A685B68BB
:101020000D48C3F30243C1F388111CF803C002F05A
:101030000F02002302FB0CF2A1FB0001FFF7F4FA00
:10104000DDE7064BD3F8A0205204D7D5D3F8A03063
:10105000DB04D3D50448D2E700127A0000380240FE
:10106000CCB3020800000020006CDC02DCB30208F4
:1010700050B9084B5A6860F341025A60054B5A68F0
:1010800061F300025A607047024A536843F002035A
:101090005360F3E700740140024B5A6810435860F4
:1010A000704700BF00740140014BD860704700BF1B
:1010B00000740140014B1861704700BF007401408B
:1010C000014B5861704700BF0074014019490B681B
:1010D00043F001030B600B689B07FCD58B68154A36
:1010E00023F003038B60936813F00C0FC3F38101AB
:1010F000F9D11368104823F0867323F4803313600A
:1011000091605060D2F8A03043F48043C2F8A03020
:10111000BFF36F8FD2F8A03061F30C33C2F8A03068
:10112000BFF36F8FC2F8A010BFF36F8F4FF41F0390
:10113000D36070470038024002300300030C03F113
:10114000804303F50E3300F01F001A68012383402B
:1011500093430CBF01200020704700BF030C03F134
:10116000804303F50E33012900F01F0019684FF08A
:10117000010202FA00F20CBF0A4321EA02021A60DD
:10118000704700BF030C03F1804303F50E330129C0
:1011900000F01F0019684FF0010202FA00F20CBFC4
:1011A0000A4321EA02021A60704700BF042809D8E6
:1011B000DFE800F0090F151B03000F4B5A6F61F3B6
:1011C00000025A6770470C4B1A6861F300021A60FC
:1011D0007047094B1A6861F310421A607047064B5A
:1011E0001A6861F318621A607047034B1A6F61F353
:1011F00000021A67704700BF00380240024B9A682D
:1012000060F307129A60704700380240024B9A68F8
:1012100060F38C229A60704700380240024B9A6853
:1012200060F34F329A60704700380240054AD2F8A6
:10123000A43001280CBF43F0300323F03003C2F880
:10124000A430704700380240012818D1104BD3F861
:10125000A02042F48042C3F8A020BFF36F8FD3F8E0
:10126000A02042F48052C3F8A020BFF36F8FD3F8C0
:10127000A02042F48042C3F8A020BFF36F8F044B3C
:10128000D3F8A02060F34D32C3F8A020704700BF10
:101290000038024010B59E4682B0D8B1DFF87CC05D
:1012A000DCF8043060F39653CCF80430DCF804002A
:1012B00061F38E10CCF80400DCF8041062F3030133
:1012C000CCF80410DCF804206EF31242CCF80420B1
:1012D00002B010BDDFF844C0DCF8A030C3F38033A7
:1012E0008DF80730DCF8A03043F48043CCF8A03010
:1012F000BFF36F8FDCF8A03043F48053CCF8A030FC
:10130000BFF36F8F9DF807301C46DCF8A03064F304
:101310008E33CCF8A030BFF36F8FBFE700380240A8
:101320000C4B9A6860F301029A6000BF00BF00BFD7
:1013300000BF00BF00BF00BF00BF00BF00BF00BFB5
:1013400000BF00BF00BF00BF00BF00BF00BF00BFA5
:1013500000BF704700380240024B9868C0F381001C
:10136000704700BF0038024010B5214B9A6812F058
:101370000C0F0446C2F3810130D0022919D01D4858
:101380001B4B20609A681C49C2F303128A5C1B49FC
:10139000D04060609A68C2F382228A5C184920FAC1
:1013A00002F2E2609B68C3F34233CB5CD840A0609A
:1013B00010BD5A6859685A685B681248C3F3024303
:1013C00002F00F02C05C00FB02F20A48C1F3881170
:1013D0000023A1FB0001FFF727F9D1E7D3F8A020F4
:1013E0005204CCD5D3F8A030DB04C8D50648C7E7F3
:1013F0000038024000127A00ECB30208E4B302089D
:10140000E4B30208FCB30208006CDC02034B04499D
:10141000044A59605A6059645A647047003C02405B
:1014200023016745AB89EFCD044B1A6942F0800276
:101430001A611A6D42F080021A657047003C024042
:1014400000F17843B3F5002F29D300F1774303F57A
:101450007803B3F5002F01D303207047374A136D8B
:1014600043F0020313655065136D43F040031365A9
:10147000D36CD90743D54FF00043D16CC80703F1B3
:10148000FF334FD4D16C490752D4D06CC0F3001055
:10149000C0F10300C0B2002B08BF042038E0274A87
:1014A000136943F0020313615061136943F0400371
:1014B0001361D368DB0713D54FF00043D168C90728
:1014C00003F1FF332AD4D16848072FD4D068C0F382
:1014D0000010C0F10300C0B2002B08BF042008E0D8
:1014E000D368580726D4D068C0F30010C0F10300B9
:1014F000C0B2124A136923F0020313617047D36C20
:101500005B0719D4D06CC0F30010C0F10300C0B267
:101510000A4A136D23F0020313657047002BCDD1E7
:101520000420E6E7002BA8D10420F1E70120D3E74F
:101530000120B0E70120DCE70120E9E7003C0240A0
:1015400000F17843B3F5002F25D300F1774303F57D
:101550007803B3F5002F01D303207047334A136D8E
:1015600043F0010313650160D36CD9073FD54FF4F5
:101570008013D16CC80703F1FF334BD4D16C4907FA
:101580004ED4D06CC0F30010C0F10300C0B2002BE9
:1015900008BF042034E0254A136943F001031361B6
:1015A0000160D368DB0713D54FF48013D168C907F6
:1015B00003F1FF332AD4D16848072FD4D068C0F391
:1015C0000010C0F10300C0B2002B08BF042008E0E7
:1015D000D368580726D4D068C0F30010C0F10300C8
:1015E000C0B2124A136923F0010313617047D36C30
:1015F0005B0719D4D06CC0F30010C0F10300C0B277
:101600000A4A136D23F0010313657047002BCDD1F7
:101610000420E6E7002BACD10420F1E70120D3E75A
:101620000120B4E70120DCE70120E9E7003C0240AB
:101630000B88002B4FD02DE9F041DE078E464FF08E
:1016400000024FF003054FF001043FD5016856003A
:1016500005FA06F721EA070101609EF80610D0F8A6
:1016600000C0B14041EA0C010160416804FA02FC8B
:1016700021EA0C0141609EF80410D0F8048001FAC0
:1016800002FC4CEA08014160816821EA070181609F
:101690009EF807C081680CFA06FC4CEA01018160E3
:1016A000C16821EA0701C1609EF805C0C1680CFA53
:1016B00006FC4CEA01015B08C1600AD00132D9077F
:1016C000C4D45B08DE0702F10102BFD45B0801321B
:1016D000F5E7BDE8F08170474FF6FF724FF0807379
:1016E000C0E90023704700BF036999430CBF012084
:1016F000002070470AB1816170478162704700BF66
:1017000001F007039B004FF00F0CC90802FA03F227
:101710000CFA03FC07D0436A23EA0C034362436AD2
:10172000134343627047036A23EA0C030362036AAC
:1017300013430362704700BF08B5144B984206D0AC
:10174000134B98420DD0134B984214D008BD124849
:101750000121FFF717FDBDE808400F480021FFF702
:1017600011BD0E480121FFF70DFDBDE808400B48F3
:101770000021FFF707BD0A480121FFF703FDBDE87F
:10178000084007480021FFF7FDBC00BF005400409F
:1017900000580040005C00401500200016002000AA
:1017A00017002000036823F001030360026103684F
:1017B00061F30B2303607047036861F30003036068
:1017C000704700BFBDF800C04CEA030C4CEA024C65
:1017D0004368044A4CEA010C13404CEA030343609B
:1017E000704700BF009800FC8162704783690B421C
:1017F00014BF012000207047C1617047194BDB689E
:10180000C3F30223A3F1030CBCF1040F00B51ED8EF
:101810004FF0FF3EC3F107030EFA03F30EFA0CFE7E
:1018200022EA0E02DB43194001FA0CF111430028B1
:101830004FEA01110FDB0C4A131883F80013012340
:10184000410900F01F00834042F8213000BD002212
:101850000F239446E7E7054B00F00F00C3181976F5
:1018600000BD00BF00ED00E000E100E0FCEC00E0A6
:101870000749CA6803024FF6FF0003F4E063024021
:10188000134343F0BF6343F40033CB60704700BFA2
:1018900000ED00E04FF0E022042813690CBF43F094
:1018A000040323F004031361704700BF0B4B01E0F6
:1018B000013B02D00269002AFADA0269074B42F0C2
:1018C0000102026101E0013B02D00269D207FAD4B1
:1018D000836B43F480338363704700BF420D030082
:1018E00010B94FF0A0407047004870470000044016
:1018F0000269074B61F38A120261026942F0200219
:10190000026101E0013B02D002699206FAD47047FD
:10191000420D03000269054B42F01002026101E032
:10192000013B02D00269D206FAD47047420D03008F
:101930008369012A0BBF19438B438161836170471F
:10194000436980691840704741617047836843F07C
:1019500001038360704700BF836823F00103836045
:10196000704700BF41627047436A19B943EA0243B6
:101970008362704710B51446826A013903EB124E38
:1019800009D0002300EB830C0133DCF804218B42E7
:101990000EEB124EF6DB00EB81004EEA0442C0F87B
:1019A000042110BD41B9C36861F35D73C360C368AE
:1019B00043F08043C3607047012908D1C36823F016
:1019C0008043C360C36843F00053C360704702297B
:1019D00007D1C36823F08043C360C36823F000537A
:1019E000C3607047D0F8003E43F00103C0F8003EEA
:1019F000704700BFD0F8003E23F00103C0F8003E5E
:101A0000704700BF00B503F1030E5FEAAE0E0CD0C5
:101A100000F5805000EB02324FF0000C0CF1010C8D
:101A200051F8043B1360E645F8D100BD03F1030C07
:101A30005FEAAC0C08D000F5805000220132036848
:101A400041F8043B9445F9D1704700BF70B50A785E
:101A500072BB8B68083B182B68D9CC78012C1646D2
:101A600000F5006E2AD08D784FF0010C0CFA02FCC4
:101A7000530155BBDEF81C5045EA0C05CEF81C504E
:101A800000F5106C002A4AD088685CF8031060F3F7
:101A90000A014CF803105CF8031064F393414CF80E
:101AA00003105CF8031062F399514CF8031022E024
:101AB0000026CC78012C00F5006ED4D1DEF804307D
:101AC00043F40043CEF80430CDE7DEF81C5045EA7D
:101AD0000C45CEF81C5000F5306CCAB189685CF832
:101AE000032061F30A024CF803205CF8032064F33E
:101AF00093424CF803205CF8032042F080524CF8EB
:101B000003205CF8032042F400424CF8032070BD2F
:101B1000D0F8002B66F30A02C0F8002BE5E7D0F8F6
:101B2000001966F30A01C0F80019B4E7014CE35C40
:101B30001E46BEE704B402080B7891F802C00122E9
:101B40009A4000F500615B01BCF1000F0ED1D1F8A5
:101B50001CC000F510602CEA0202CA61C258002ABB
:101B60000EDBC25822F40042C2507047D1F81CC0AC
:101B700000F530602CEA0242CA61C258002AF0DA4D
:101B8000C25842F08042C250C25842F00062C25075
:101B9000C25822F40042C250704700BF0B788A78C6
:101BA0005B016AB900F51060C258D20F03D1C15869
:101BB00062F39E71C150C25842F40012C250704785
:101BC00000F53060C258D20FF5D1C15862F39E7152
:101BD000C150F0E7CB780A788978023B5201DBB23A
:101BE00051B900F51060012B50F802C061F3555C4B
:101BF00040F802C008D9704700F53060012B8158C9
:101C000021F400118150F6D8835843F0805383505B
:101C1000704700BFD0F81838D0F81C081840000CE6
:101C2000704700BFD0F81838D0F81C08184080B2B0
:101C3000704700BF00EB4113D3F8083BD0F81408FD
:101C400018407047D0F81028D0F8343800EB411015
:101C5000CB40DB01D0F80809DBB2134318407047D2
:101C600000EB4110C0F8082B704700BF00EB41109B
:101C7000C0F80829704700BFD0F8003861F30A1394
:101C8000C0F80038704700BF0023C0F8103BD0F800
:101C9000103B012262F3DC43C0F8103BD0F8103B4C
:101CA000182262F31203C0F8103BD0F8103B43F047
:101CB000C043C0F8103B7047D0F800396FF30A03F7
:101CC000C0F80039D0F8043823F48073C0F8043821
:101CD000704700BFD0F8043823F00203C0F804387E
:101CE000704700BFD0F8043843F00203C0F804384E
:101CF000704700BFD0F8080800F00100704700BF2F
:101D0000D0F8403401290BBF23F01E0323F4805385
:101D100043F4805323F01E03C0F84034704700BFE3
:101D2000D0F8080480B270472DE9F04100F5A06CAE
:101D30000CEB411C9DF81840BDF81C5098464FF024
:101D4000FF33CCF8083000F580669DF82030032C76
:101D50000BD8DFE804F04A5B4A02DCF80C7047F469
:101D6000D36747F00107CCF80C70B7694FF0010E4C
:101D70000EFA01FE4EEA0707B761816941F0007172
:101D80008161DCF8001068F39C51CCF80010DCF89D
:101D9000001062F3CE21CCF80010DCF80010D2095C
:101DA00062F3CF31CCF80010A3F10203DCF800207D
:101DB000B3FA83F35B0963F35142CCF80020DCF8FB
:101DC000003064F39343CCF80030DCF80030032C8F
:101DD00065F30A03CCF8003005D1DCF8003043F09D
:101DE0000053CCF80030BDE8F081DCF80C7047F40B
:101DF000936747F00107CCF80C701706B5D5DCF8EF
:101E00000C7047F48077CCF80C70AEE7DCF80C70FF
:101E100047F4087747F00107CCF80C70A5E700BF3E
:101E200082681C4B22F001028260026942F01002BB
:101E300000F5806C026101E0013B02D00269D1062D
:101E4000FAD40369102262F38A1303610269114B09
:101E500042F02002026101E0013B02D002699206D9
:101E6000FAD400F5A06300F5E0611A68002A03DAED
:101E70001A6842F080421A6020338B42F5D14FF04D
:101E8000FF33CCF814304361836843F0010383606F
:101E9000704700BF420D030000F5A06303EB411142
:101EA0000B6813F4402F23D00B68C3F38143022B3C
:101EB0001ED00B6843F080430B60D0F8103413F44D
:101EC0007F0FC3F307420B682CD162F3DF730B6003
:101ED0000B68002B03DB0B6843F000430B6040F200
:101EE000E93301E0013B23D00A68002AFADB70479E
:101EF0000B6843F080430B60C36A13F47F0FC3F396
:101F000007420B680ED162F3DF730B600B68002B86
:101F10000FDA40F2E93301E0013B09D00A68002AF8
:101F2000FADB7047002B03DB0B6843F000430B60C8
:101F300070470B6843F000430B60EAE7D0F80034C9
:101F4000022961F30103C0F800340CBF41F2707341
:101F50004BF68033C0F80434704700BF10B584B02E
:101F600004461046CDE90231FFF7BAFC0399206020
:101F7000002384F8F73B4FF40163A4F8EE3B0129FA
:101F80000D4BC4F8F03B04BF022384F8F43B01235B
:101F900084F8EC1B84F8F51B84F8F93B836B029AF8
:101FA00043F400138363069B00910146201D00F05B
:101FB0008BFB002004B010BD4000400110B584B080
:101FC00004461046CDE90231FFF78AFC03992060F0
:101FD000002384F8F73B4FF40163A4F8EE3B01299A
:101FE0000E4BC4F8F03B04BF022384F8F43B0123FA
:101FF00084F8EC1B84F8F51B84F8F93B836B029A98
:1020000043F400138363069B0091014604F53E7080
:1020100001F0CAF9002004B010BD00BF400040012B
:1020200010B5044600F5357100F5337000F054FE2C
:1020300094F8CC32B4F8D212A4F8E212012203F0E0
:102040001F03934284F8E0220CD0022B05D073B911
:102050002046BDE8104000F04BBE2046BDE81040D1
:1020600000F0C8BF2046BDE8104000F09FBF2068C8
:1020700004F5B671FFF792FD0122214684F879211B
:1020800051F80C0BFFF78AFD0122627610BD00BFEC
:1020900000B5D0F800C090F86CE1C0F880110023C2
:1020A000C0F88831C0E9642203210CF5306380F860
:1020B000E01203EB4E13D0F87411C0F884111A69C2
:1020C00061F312021A611A69012161F3DC421A619B
:1020D00090F86F218A420AD1DCF8082812F4807F38
:1020E0001A680CBF42F0005242F080521A601A681F
:1020F00042F080621A601A6842F000421A6000BD25
:1021000000B50A06036883B00DD42C2202FB01013E
:1021100001F5B67118460191FFF75CFD01990023A6
:102120004B7303B000BD01F07F012C2202FB0101C3
:102130000C31EFE700B50A06036883B00DD42C22FA
:1021400002FB010101F5B67118460191FFF726FD6A
:10215000019901234B7303B000BD01F07F012C22D4
:1021600002FB01010C31EFE738B500F5B67104460A
:102170000068FFF713FD0125214684F8795151F8D5
:102180000C0BFFF70BFD657638BD00BF01F07F013A
:102190002C2303FB0100D0F88801704711F0800F59
:1021A00000B5D0F800C012D14FF02C0E0EFB01F19B
:1021B00000EB010E01F5B671014401208EF86E01AD
:1021C000CA705DF804EB8B606046FFF73FBC4FF0D0
:1021D0002C0E01F07F010EFB01F100EB010E0C3122
:1021E000014400208EF80E00CA705DF804EB8B608D
:1021F0006046FFF72BBC00BFD0F800C001F07F02A3
:102200000CF5106303EB42131A68002A00DB7047D9
:102210001A681204FBD5186840F00060186018684E
:1022200040F080401860186840F000604FF4803241
:10223000186001E0013A02D018684000FAD401F0B9
:102240001F016046FFF754BB0B0607D42C2303FB8A
:10225000010101F5B6710068FFF76EBC01F07F0166
:102260002C2303FB01010C310068FFF765BC00BFA4
:102270000068FFF72FBD00BF10B504460068FFF7E8
:1022800031FD002340F20112A4F8E42284F8E63282
:10229000C4F8EC3210BD00BF0068FFF7EDBC00BF12
:1022A00000B50022034611465FFA82FE4FF0000C93
:1022B0006EF3070C01326EF30F2C082AC3E90811E4
:1022C000A3F80CC09973596103F12C03ECD10023DE
:1022D00019464FF0010E5FFA83FC4FF000026CF3D9
:1022E000070201336CF30F22082BC0E96011A0F83C
:1022F0006C2180F86EE1C0F8741100F12C00EAD175
:1023000000BD00BF2DE9F04101F07F062C2505FB43
:102310000605076895F80CC084B007F51064CDE990
:102320000232019004EB4C14FFF766FF029B039A04
:1023300001982A62002107F500686B62A96233BB2D
:102340002169012565F3DC412161216963F31201F3
:102350002C2303FB06032161DB7B012B2ED023689A
:1023600043F080632360236843F0004323602C2301
:1023700003FB06035A6A3AB1197BD8F834200123CB
:102380008B401343C8F8343004B0BDE8F081002E10
:1023900033D141698B428CBF4162416A236961F349
:1023A000120323612369012565F3DC4323612C2398
:1023B00003FB0603C162DB7B012BD0D1D8F80830C8
:1023C00013F4807F23680CBF43F0005343F0805325
:1023D0002360236843F080632360236843F0004355
:1023E00023602C2303FB06001146838C027B3846B6
:1023F00004B0BDE8F041FFF705BBD4F810C069692F
:1024000063F3120CC4F810C0013B0B44B3FBF1F3AF
:10241000216963F3DC412161EB7B012B9FD12169B1
:1024200063F35E712161C9E713460A46022180F811
:10243000E012C0E90C330021FFF764BF002304223F
:1024400080F8E02219461A46FFF75CBF10B501F08C
:102450007F014FF02C0C0CFB010CD0F800E09CF835
:102460006C41CCE960230EF5306202EB441200248B
:10247000CCF8884149B36BBB2C2303FB0103D3F891
:102480007441136964F3120313611369012464F343
:10249000DC4313612C2303FB010090F86F31012B07
:1024A0000AD1DEF8083813F4807F13680CBF43F0BC
:1024B000005343F080531360136843F0806313604C
:1024C000136843F00043136010BDD0F87431C0F8B6
:1024D0008431D1E7DCF87441D2F810C0013B2344C9
:1024E000B3FBF4F303FB04F464F3120CC2F810C062
:1024F000146963F3DC441461CCE700BFD9B990F8E8
:10250000E032032B1ED1D0F890C1D0F874319C4535
:102510001BD843681B6910B504460BB1984790B9A6
:102520000422002384F8E02220461A46BDE8104029
:102530001946FFF7E7BE43689B691BB190F8E42298
:10254000032A01D0704710BD1847ACEB030C63455C
:1025500028BF6346D0F88021C0F890C19BB2FFF736
:1025600075BF00BF21B990F8E022022A09D0704758
:1025700043685B69002BFAD090F8E422032AF6D175
:10258000184730B54269D0F830E0964583B016D888
:10259000C46AA242054624D06B68DB681BB195F87B
:1025A000E422032A1AD00023052285F8E0222846D7
:1025B0001A46194603B0BDE83040FFF747BFAEEBFF
:1025C000020E7245134628BF7346026AC0F830E017
:1025D0009BB203B0BDE83040FFF794BE2846984751
:1025E000E1E7D0F834C06245D6D8B0F8E22294458D
:1025F000D2D20B46C1620A460191FFF783FE019BCE
:1026000028461A461946D5E790F8E402704700BFFD
:1026100010B504460068FFF76DFB012800D010BD1F
:102620002068BDE81040FFF7DDB900BF10B50468B1
:10263000B4F1A04F03D0234B9C422ED010BD0021FB
:102640002046FFF78FF9002211462046FFF78CF94C
:10265000002201212046FFF787F9002202212046AF
:10266000FFF782F9002220460321FFF77DF920467B
:1026700000220421FFF778F9204600220521FFF708
:1026800073F9204600220621FFF76EF9204600224A
:10269000BDE810400721FFF767B980212046FFF70A
:1026A00061F9182200212046FFF75EF9142201216A
:1026B0002046FFF759F9142202212046FFF754F96A
:1026C0001422D0E700000440F8B5064600278360D6
:1026D0000123C0E90012084686F8E43286F8E67263
:1026E0000C4601F50065FFF7FDFA40F20113A6F86C
:1026F000E4323046C6F8EC7286F8E672FFF7D0FD99
:102700002046FFF729F92046FFF7D0F83946204642
:10271000FFF748F93068FFF76DF9D4F8003867F330
:10272000CC23C4F80038D4F8003843F00303C4F8CD
:10273000003810212046FFF7DBF82046FFF7EAF8C3
:102740004FF0FF33AB613946EF613B462F616F615C
:1027500004EB83020133082BC2F80411F8D1304690
:10276000FFF764FFFF26002104F5106304F52060E5
:102770000DE019601A6842F080421A601A6842F04F
:1027800000621A6019619E602033834208D01A6883
:10279000D20FEED11A6019619E6020338342F6D1C8
:1027A00004F5306304F540660021FF200DE0196058
:1027B0001A6842F080421A601A6842F000621A6099
:1027C000196198602033B34208D01A68D20FEED155
:1027D0001A60196198602033B342F6D12B69074A19
:1027E00043F480736FF080462B612046A1616661DF
:1027F000A261FFF7ABF80020F8BD00BF1C383C8099
:102800002C232DE9F041066803FB01048846D4E936
:10281000091306EB48176069D7F81829CD1A8542C5
:1028200028BF054692B2E81CB2EB900F07F510677F
:1028300016D81AE0CD1A6369216A9D4228BF1D4649
:10284000ABB2FFF7DFF8BA69216AA36A92B2E81C5B
:1028500029442B44B2EB900F2162A36205D9616A2F
:1028600099421FFA88F23046E4D845B9D6F8343890
:10287000012202FA08F223EA0203C6F83438BDE85E
:10288000F08100BF2DE9F041076880463846FFF728
:10289000C9F9F8B10446002501E001356408E007F4
:1028A00003D401356408E307F7D529463846FFF716
:1028B000C9F9C10706462CD4320724D4F3061CD428
:1028C000700614D4B1070CD4320605D4640801D0C4
:1028D0000135E8E7BDE8F08129464046FFF790FF63
:1028E000F4E7022229463846FFF7C0F9ECE7402218
:1028F00029463846FFF7BAF9E4E710222946384658
:10290000FFF7B4F9DCE7082229463846FFF7AEF9AD
:10291000D4E7D7F83438012202FA05F123EA01039B
:1029200038462946C7F83438FFF7A0F9E9B24046DF
:10293000FFF718FEC0E700BF2DE9F04107688046A9
:102940003846FFF767F9C8B10446002501E00135B4
:102950006408E60703D401356408E307F7D5294680
:102960003846FFF767F90646F00728D431070DD43B
:10297000F20605D4640801D00135EEE7BDE8F08128
:10298000102229463846FFF76BF9F3E7082229465B
:102990003846FFF765F9E9B24046FFF741FB98F882
:1029A000E632002BE4D0D8F80020D2F8001800203E
:1029B00063F30A11C2F8001888F8E602D8E729463E
:1029C00038460122FFF74CF9E9B24046FFF796FD81
:1029D000CCE700BF10B582B0044600680190FFF755
:1029E0006BF90198C3680521002261F38D23C36050
:1029F000114640232046FFF7D1FB402300228021CF
:102A00002046FFF7CBFB6368012284F8E4225B6871
:102A100023B1204602B0BDE81040184702B010BDF7
:102A200010B584B000221021044600680190FEF722
:102A30007FFF0198026AC2F343410229C2F30A13DD
:102A400002F00F0208D006291DD00122102104B087
:102A5000BDE81040FEF76CBF002BF6D02C2101FB27
:102A600002440293D4F88011FEF7E0FFD4F88011FD
:102A7000D4F88821029B019819441A44C4F88011A3
:102A8000C4F88821E1E704F53571CDE9022301900E
:102A9000FEF7CCFF029A039B01982C2101FB024414
:102AA000D4F888211A44C4F88821CEE770B50568A7
:102AB000D5F8043805F5006423F001036360064689
:102AC000FFF7B4FD10212846FEF712FF05F510634D
:102AD00005F5206C4FF6FF7199601A6822F4001218
:102AE0001A601A681846203342F0006243F8202C1E
:102AF000C0F80812D3F8E02122F40012C3F8E02154
:102B0000D3F8E021634542F00062C3F8E021E3D14D
:102B10004FF0FF324FF00113A261E361636943F0AC
:102B200001036361636943F002036361636943F016
:102B300008036361236943F001032361236943F0C0
:102B400002032361236943F008030021236128461F
:102B5000FFF792F82846FFF797F87368012186F887
:102B6000E4121B6A1BB13046BDE87040184770BDC7
:102B70000268D2F80828D30700D4704700B50422B1
:102B800083B090F8E41280F8E51280F8E422019016
:102B9000FFF73EFD019B5A68126A2AB102211846CE
:102BA00003B05DF804EB104703B000BDF8B505684D
:102BB00006462846FEF7C4FE6B69D90721D4820772
:102BC000044606F1040751D4630355D4200358D4B6
:102BD000E1045BD4220708D5B368DB690BB1384642
:102BE000984708212846FEF7AFFEA3040AD4E00662
:102BF00012D4E10215D4A20220D4002C51DB23050B
:102C00002AD4F8BD3846FFF7E5FE28464FF40051B8
:102C1000FEF79AFEE006ECD53846FFF701FFE10229
:102C2000E9D5B3681B6A13B10521384698474FF4BC
:102C300080112846FEF788FEA202DED5B3681B6A23
:102C400013B10621384698474FF400112846FEF785
:102C50007BFE002CD3DA24E03846FFF789FF2846B4
:102C60004FF40061BDE8F840FEF76EBE0221284631
:102C7000FEF76AFE6303A9D53846FFF703FE20037B
:102C8000A6D53846FFF758FEE104A3D53846FFF72E
:102C90000DFF4FF480512846FEF756FE2207A4D5BB
:102CA0009AE77068D0F8043823F00103C0F80438BC
:102CB000FEF7A0FE96F8E93286F8E832B3681B6AA0
:102CC00013B10321384698474FF000412846FEF7DC
:102CD0003BFE230595D5BFE70B7803704B78437017
:102CE0004B8843808B888380CB88C380704700BF2C
:102CF00010B590F8CC2212F0600F82B0034615D1C7
:102D000090F8CD22092A0BD8DFE802F03D520A05DF
:102D10000A6F910AAA18B0F8CE22012A00F0B180F9
:102D20001846FFF721FA002002B010BD426800F5F6
:102D3000337193689847002002B010BD9A49B0F8EB
:102D4000D00293F8CE220A700028E9D1B3F8D2025B
:102D50000028E5D193F8E402022800F0F680032869
:102D6000DED190B2002A40F0FF805A680093022121
:102D700083F8E4125268C3F8EC02184690470098B2
:102D8000FFF75CFBCFE790F8E422023A012AC7D8AC
:102D900090F8E7222AB1D0F8F02242F00202C0F8FF
:102DA000F022022203F53C711846FFF73DFBBAE71B
:102DB00090F8E422023A012AB2D8B0F8CE22012AD1
:102DC000B1D1D0F8F02241680093002083F8E702E7
:102DD00022F002028C68C3F8F02203F53371184622
:102DE000A0470098FFF72AFB9DE7B0F8D022002A01
:102DF00096D1B0F8D222002A92D190F8E422032A88
:102E00008ED0B0F8CE1201F07F0180F8E612CDE945
:102E10000010FFF741FA0099019B00290CBF012225
:102E2000022283F8E4221846FFF708FB7BE7B0F89C
:102E3000CE120A0A013A062A3FF672AF01A050F8F4
:102E400022F000BFF32E0008BF2E0008A92E0008B4
:102E5000212D0008212D00089B2E00089B2E000824
:102E6000B0F8D222012A7FF45BAF90F8E412022975
:102E700063D003297FF454AF00F53B71FFF7D4FA18
:102E800051E7416880F8E7228A68009000F53371C5
:102E900090470098FFF7D2FA45E75A6803F5337177
:102EA0009268184690473EE7C9B20529F5D801391E
:102EB000042973D8DFE801F0352F29233B009A68F5
:102EC000009392689047009B00283FF42CAF028843
:102ED000002A3FF428AFB3F8D2C2BCF1000F3FF490
:102EE00022AF6245416828BF62461846FFF79CFA48
:102EF00019E79A68009312689047009BE4E79A6884
:102F00000093526A9047009BDEE79A680093D2696B
:102F10009047009BD8E79A68009392699047009B7E
:102F2000D2E79A68009352699047009BCCE79A6871
:102F30000093126A9047009BC6E70021C0F8E81290
:102F400000F53A71FFF770FAEDE61AB3596800938D
:102F5000032083F8E4020968C3F8EC221846884786
:102F60000098FFF76BFADEE6D3F8EC22824211D02C
:102F70005A680093526818469047009B0A495A685D
:102F800009781268C3F8EC12184690470098FFF7CA
:102F900055FAC8E61846FFF751FAC4E69A68009356
:102FA00012699047009B8FE71404002000B590F849
:102FB000E422013A022A83B00ED842680190926856
:102FC00000F533719047019BB3F8D212024601B964
:102FD00040B1104603B000BDFFF7C6F8002210460E
:102FE00003B000BD01901846FFF728FA019A104679
:102FF00003B000BD10B590F8CC2212F0600F82B083
:1030000003462ED1B0F8D0221446D1B290F8CD228A
:10301000012A2ED0032A3CD0EAB990F8E422022AF1
:1030200056D0032A17D12C2104F07F0201FB02F2B3
:1030300021064CBF02F10C0102F5B67101444A7B36
:10304000A2F10102B2FA82F2520941F8102F0222D3
:10305000FFF7EAF902E01846FFF786F8002002B011
:1030600010BD426800F5337193689847002002B0A4
:1030700010BD90F8E422022A25D0032AEBD1B0F843
:10308000CE22002AEAD162063ED11846FFF7D6F9D1
:10309000E4E790F8E422022A15D0032ADBD1B0F845
:1030A000CE222AB94A0603D00090FFF743F8009BCE
:1030B0005A680093926803F5337118469047009858
:1030C000FFF7BCF9CAE74C06C8D0FFF733F8C5E7ED
:1030D00014F07F0211D12C2101FB02F220064CBF1B
:1030E00002F10C0102F5B6711944002241F8102FCB
:1030F00018460222FFF798F9B0E7CDE90020FFF764
:1031000019F8DDE90023E6E70090FEF7F9FF009BE0
:103110005A6803F53371184692689047009BB4E7EC
:103120000F2904D800EB41000023A0F8D4387047E1
:103130002C2303FB010090F86A331BB180F8842331
:103140000020704780F88523002070472DE9F0416A
:103150002C224518002302FB0102D0F800E085F87C
:10316000C438C2F87C33C2F89033D2F88C330EEBFB
:10317000411C0CF5A064E3B1D2F870532B44013B21
:10318000B3FBF5F3B3F5807F63D92C262D0206FB44
:103190000106C2F88C5396F86A534FF000674FF45B
:1031A000807385B1D6F8702302FB03F3C6F88C3325
:1031B0000BE04FF4002701232C2606FB010696F8AE
:1031C0006A53002DEED1D6F88C332C2606FB01066F
:1031D00096F87423520702F0C0423A43C3F3120731
:1031E0003A432261DEF80824DCF80045D24362F35A
:1031F0005D74CCF80045DCF8002522F0804242F0F6
:103200000042CCF800250EF58062FDB9F3B196F8C6
:103210006C43032C10D8DFE804F0021E021EDEF817
:103220002C20DC1C92B2B2EB940F05D2DEF81820F1
:1032300042F02002CEF818200A462C2101FB020C95
:103240009BB2DCF888137046FEF7DCFB0020BDE87B
:10325000F081DF04B0E71269DC1C92B2B2EB940F8C
:10326000EAD2DEF8182042F08062CEF81820E3E7B8
:103270004FF02C0C0CFB010CCCF888239CF8842319
:10328000CCF88C33003A18BF0122520001238CF88D
:1032900074238CF86A33FFF759BF00BF4FF02C0C32
:1032A0000CFB010CCCF888239CF88523CCF88C33DC
:1032B000003A18BF0122520000238CF874238CF8C6
:1032C0006A33FFF743BF00BF4FF02C0C0CFB010C1F
:1032D000CCF888239CF88423CCF88C33003A18BFB0
:1032E0000122520001238CF874238CF86A33FFF713
:1032F0002DBF00BF4FF02C0C0CFB010CCCF8882329
:103300009CF88523CCF88C33003A18BF0122520078
:1033100000238CF874238CF86A33FFF717BF00BFC3
:103320004FF02C0C0CFB010CCCE9E22300238CF8B1
:103330006A338CF87433FFF709BF00BF4FF02C0CD1
:103340000CFB010CCCF88823CCF88C330022012331
:103350008CF874238CF86A33FFF7F8BE90F8443386
:103360004FF0010C00224FF4807180F806C00F2B43
:103370004FF0080C818080F85D2380F846C30181FE
:10338000C0F8302880F8562303D800EB4303A3F895
:10339000D42890F845330F2B04D800EB43000023CA
:1033A000A0F8D4380020704770B50C46054619685F
:1033B0000460C0E9D82388470123AB71082385F84E
:1033C000463395F8443300224FF480710F2BA980C7
:1033D00085F85D232981C5F8302885F8562303D860
:1033E00005EB4303A3F8D42895F845330F2B04D8F5
:1033F00005EB43030022A3F8D4289022002105F610
:10340000340024F07FFA00260823C5F870332046E4
:10341000C5F82868FEF7A0FA2046FEF747FA012112
:103420002046FEF7BFFA2046FEF7E4FA01212046C7
:10343000FEF784FDD4F80034B4F1A04F66F38203A4
:10344000C4F800342AD0214B9C4227D010212046BA
:10345000FEF74EFA2046FEF75DFA00264FF0FF31E8
:1034600004F5A06304F5E062DE60996020339A42BF
:10347000FAD101212046FEF743FC6FF08042144B45
:10348000A66120466261A361FEF760FAD5F8643355
:1034900001219B6A28469847002070BD8022626205
:1034A000A36A62F30F03A362A36AC0F26003A3627C
:1034B000D4F80031E02161F30F03C4F80031D4F8EF
:1034C0000031C0F26003C4F80031BFE700000440DF
:1034D000180830A330B54FF02C0C0CFB010C4FEA50
:1034E000D21E8CF86AE39DF814509DF80CE0BDF8EC
:1034F00010408CF868138CF86B238CF86CE38CF814
:1035000075538CF869330068CCF87043CDE90445F5
:10351000CDF80CE0BDE83040FEF706BC0068FEF7D1
:10352000BBBC00BF00F6D202002332F902CFBCF1CF
:10353000000F04DA0133102BF7D10120704700EBA4
:1035400043026FEA41416FEA514198B2A2F8D418A0
:10355000704700BF084490F8C408704770B504462F
:103560000D46164600F0B8FD20B1042808D0032807
:1035700000D070BD012384F85D536671A37170BDE6
:103580000022012384F85D23A37170BD70B54379D7
:10359000013B86B004460B2B12D8DFE813F016006F
:1035A0002E00450066004D011B0134017D00940092
:1035B000CC00040114000022012384F85D23A371D0
:1035C000022006B070BD0020FBE790F85D33002BB1
:1035D00000F08782204600F07FFD0546002800F0BD
:1035E0008D810428E7D00328EAD100224FF48173AB
:1035F00084F85D23A4F80530E2E790F85D33002BF2
:1036000000F06B82204600F067FD002800F05A8130
:103610000428D0D00328D3D1002240F2031384F829
:103620005D23A4F80530CBE790F85D3353B9B24B76
:10363000197814290ABF01214A1C022201721A704A
:1036400000F0BEFF204600F047FD0546002800F0D0
:10365000A1810428AFD00328B2D100224FF4827395
:1036600084F85D23A4F80530AAE790F85D33002BB9
:1036700000F05282204600F02FFD002800F02F813C
:10368000042898D003289BD1002240F2051384F827
:103690005D23A4F8053093E790F85D33002B00F02C
:1036A0001582204600F018FD002800F0F88004285C
:1036B00081D0032884D1002240F2091384F85D23CD
:1036C000A4F805307CE790F85D23002A00F01B8207
:1036D000204600F001FD002840F0D48094F84433E7
:1036E00084F85D032C214FF4857201FB0343A4F899
:1036F0000520A4F83403D3F8903319469BB29A1EE0
:10370000102A3FF65DAF94F828269A427FF458AF0E
:1037100094F82936032B7FF453AF0D468AB204F296
:10372000223004F5C56124F065FC012384F834538C
:1037300084F8353344E790F85D23002A00F0DA81FD
:10374000204600F0C9FC002840F08F8094F84433F4
:1037500084F85D032C2140F20B1201FB0343A4F813
:103760000520A4F84003B3F890330A2B7FF428AF68
:1037700094F828360A2B7FF423AF94F82936062BC9
:103780007FF41EAFD4F82806D4F82C16B4F83026EF
:10379000C4F836034FF48573C4F83A13A4F83E23F3
:1037A000A4F840330CE790F85D33002B00F09D81C6
:1037B000204600F091FC28B104283FF4FCAE032819
:1037C0007FF4FEAE00224FF4867384F85D23A4F8E4
:1037D0000530F5E690F85D33002B00F0708120464F
:1037E00000F07AFC002800F04C8104283FF4E3AE9E
:1037F00003287FF4E5AE002240F2071384F85D232E
:10380000A4F80530DCE690F85D33002B00F0508121
:10381000204600F061FC002800F0208104283FF4DD
:10382000CAAE03287FF4CCAE00224FF4847384F830
:103830005D23A4F80530C3E690F85D33002B00F05B
:103840003381204600F048FC002800F0EA8004287C
:103850003FF4B1AE03287FF4B3AE00224FF483737C
:1038600084F85D23A4F80530AAE6042800F0588106
:10387000032800F0658102283FF4A2AE0023A4F8DB
:1038800040339DE6042800F05381032800F0628154
:1038900002283FF495AE0023A4F8343390E604F5F3
:1038A000C56140F2091384F85D03A4F805300846A9
:1038B000FF22049100F0F4FDD4F864330498DB692E
:1038C00098477DE640F2031384F85D03A4F80530C1
:1038D000122204F5C561204600F004FD70E640F2B6
:1038E000051384F85D03A4F80530092204F5C561C9
:1038F000204600F017FD63E6040000204FF48173BA
:1039000084F85D03A4F8053004F5C561204608225B
:1039100000F0E8FC94F8441394F811C0237A94F86A
:1039200009E084F846C32C2606FB0142104682F8C3
:1039300075E382F8693382F86C5382F86813C2F831
:1039400070C348F20102A0F86A23CDE901CE0095C8
:1039500020688022FEF7E8F994F84513237A94F85A
:1039600046C394F809E006FB01402A4680F875E357
:1039700080F8693380F86C5380F86813C0F870C31E
:10398000A0F86A53CDF808E02068CDE9005CFEF7A6
:10399000CBF915E694F84413237A94F846C394F8C7
:1039A00009E084F85D032C264FF48272A4F8052008
:1039B00006FB0142104682F875E382F8693382F80B
:1039C0006C5382F86813C2F870C348F20102A0F881
:1039D0006A23CDE901CE009520688022FEF7A4F984
:1039E00094F84513237A94F846C394F809E006FB4B
:1039F00001402A4680F875E380F8693380F86C53FB
:103A000080F86813C0F870C3A0F86A53CDF808E0D6
:103A10002068CDE9005CFEF787F90A2007F036F848
:103A2000CEE5E38B84F85D03B3F5007F1A464FF4CF
:103A3000837128BF4FF40072A4F80510A4F8202366
:103A400004F5C56104F590700491059324F0D2FA51
:103A5000DDE90412204600F065FCB1E504F5C5611E
:103A60004FF4847384F85D03A4F805300846FF2200
:103A7000049100F015FDD4F8643304989B699847CD
:103A80009EE504F5C56140F2071384F85D03A4F8D0
:103A900005300846FF22049100F002FDD4F864339B
:103AA00004985B6998478BE5C18B00F031FDC8E64F
:103AB000417EFF2300F5C56200F046FDA8E6017EC9
:103AC000FF2300F5C56200F03FFD88E6817EFF23FD
:103AD00000F5C56200F038FDE3E5122100F0FCFCC2
:103AE00090E5082100F0F8FC74E590F8211000F052
:103AF00051FD5DE600F5C56300930A214FF4C063F4
:103B000000F0C4FB1CE600F5C5630093122140F2EF
:103B1000EE3300F0BBFBDBE5092100F0F9FCA9E581
:103B20000023012284F85D33A271A4F8403347E5F5
:103B30000023012284F85D33A271A4F834333FE5F9
:103B4000002340F20B1284F85D33A4F80520A4F89A
:103B5000403335E500234FF4857284F85D33A4F8D3
:103B60000520A4F834332BE570B5D0F82828037964
:103B700088B0044632B913B1032B27D0027101205B
:103B800008B070BD0E2BFAD801A151F823F000BF88
:103B9000793E00082F3C0008433C0008CD3B00085C
:103BA0007F3B00082B3D0008013D0008213D000837
:103BB0007F3B0008E93C0008433D00087F3B0008CC
:103BC0005F3C00087F3B0008913C000894F84433B8
:103BD000012000224FF48071A0710F2B4FF00800DC
:103BE000A18084F85D2384F846032181C4F830283D
:103BF00084F8562303D804EB4303A3F8D42894F89D
:103C000045330F2B40F25C812022002104F6D400C2
:103C100023F078FED4F860335B680BB120469847F8
:103C2000D4F8643300222271DB689847A7E7D0F804
:103C30002C38002BA3D002230371322006F026FF7C
:103C40009DE700F6D2021146002331F9020F002849
:103C500080F298800133102BF7D1012398E090F87F
:103C60005D23002A00F04281204600F035FA00284A
:103C700000F02C81042800F0338103287FF47FAF0B
:103C800000224FF4807384F85D23A4F8053076E7B2
:103C900090F84433012000224FF48071A0710F2B63
:103CA0004FF00800A18084F85D2384F84603218149
:103CB000C4F8302884F8562303D804EB4303A3F850
:103CC000D42894F845330F2B04D804EB4303002287
:103CD000A3F8D428D4F8603320465B689847D4F81A
:103CE00064335B6898474AE7D0F860330622027174
:103CF0001B68984703287FF442AF0D2323713EE7EA
:103D0000D0F860339B689847012806D040F2E580E0
:103D10000338C0B201283FF632AF0E2323712EE7DD
:103D2000D0F86033DB68984729E7FFF72FFC0028BD
:103D30007FF425AFD4F864331B6A984709232371B5
:103D40001DE790F85D23002A00F0F380204600F084
:103D5000C3F900288ED14FF4807384F85D03A4F872
:103D60000530032006F092FE2068D0F8403423F09E
:103D70001E0343F08003C0F84034FDF733FE0B23ED
:103D80002371FCE604EB430148F28000A1F8D4085B
:103D900084F84433002332F9021F002904DA013386
:103DA000102BF8D1012305E004EB43024FF400414E
:103DB000A2F8D418D4F8642384F84533536898479C
:103DC0002368D4F86423D3F840340521C3F3414079
:103DD000217160721369984794F84413237A94F818
:103DE00046C394F809E02C2505FB014210464FF02C
:103DF000000682F875E382F8693382F8681382F866
:103E00006C63C2F870C348F20102A0F86A23CDE9DE
:103E100001CE0022009220688022FDF785FF94F8F1
:103E20004513237A94F846C394F809E005FB01F2A0
:103E300010462244204482F875E382F86933C2F8C0
:103E400070C382F86C6382F868134FF00002A0F828
:103E50006A23CDE901CE002200922068FDF764FFBD
:103E600020681021FDF744FD2068FDF753FDD4F8CC
:103E700064339B68984782E6012A7FF480AE027122
:103E8000C82006F003FE2368D3F84024069222F0EF
:103E90001E0141F48071C3F84014642003F580636F
:103EA000059306F0F3FD069A059B22F48F721A64BF
:103EB000142006F0EBFDD4F864335B6898475EE6A7
:103EC00004EB43030022A3F8D4289DE60122062335
:103ED00084F85D03A271A38051E6072323714EE6A7
:103EE0000022012384F85D23A37148E6006807924D
:103EF000D0F8403400F58061CDE90531FDF77AFD59
:103F0000059B0699059123F09E0343F040030B6443
:103F1000142006F0BBFD05990B6C23F05E030B64C7
:103F2000052006F0B3FD079A0121204600F096FB1C
:103F30009AE6012100F076FB08E700BF90F84533D0
:103F4000034493F8C438012B14D0042B0CD0022B5B
:103F50000AD0D0F83038D0F8581341F288325B1AC2
:103F6000934201D80220704740F60533A0F85C3335
:103F700004207047B0F8522390F94C336AB9934249
:103F80004FF032030FDB07220B60D0F8303880F897
:103F90005D23C0F8583300207047002B41F288336E
:103FA00003DB0522F0E70922EEE70322ECE700BF7E
:103FB00038B590F845132C2303FB0103012283F845
:103FC0008523D0F84823B0F85453C3E9E2250222F0
:103FD0000025044683F8742383F86A53FFF7B6F884
:103FE000062384F85D33284638BD00BF90F845337A
:103FF000034493F8C438013B042B07D8DFE803F0EF
:104000001F0D060308000B2380F85D330020704766
:104010000C2380F85D3300207047D0F85823D0F887
:1040200030389B1A41F288320521934280F85D13A3
:10403000ECD940F60533A0F85C3304207047072321
:1040400080F85D330020704738B590F845132C2375
:1040500003FB01030122002483F885230222C3E924
:10406000E244054683F86A4383F87423FFF76EF849
:104070000A2385F85D33204638BD00BF90F84533EC
:10408000034493F8C438013B042B07D8DFE803F05E
:104090001F0D060308000B2380F85D3300207047D6
:1040A0000C2380F85D3300207047D0F85823D0F8F7
:1040B00030389B1A41F288320921934280F85D130F
:1040C000ECD940F60533A0F85C33042070470D238B
:1040D00080F85D330020704700B590F85D23002123
:1040E000013A83B0034680F85C130C2A0CD8DFE851
:1040F00002F0274549657E07819A1F2212100E00A3
:10410000594A1168FFF772FF022003B000BD00207A
:10411000FBE70320F9E790F856230132D2B2022AD6
:1041200080F8562300F28A80012280F85D23EBE7B5
:10413000FFF78AFFE8E74C4A1168FFF79FFFE3E7C4
:1041400090F8451301932C2202FB01024FF0000C62
:10415000032082F86AC382F8740303F5537C0820B5
:10416000C2E9E2C01846FEF7F1FF019B0221D3F835
:10417000302883F85D13C3F85823C5E73A49FFF7A1
:10418000DDFEC1E790F84413B3F854C301932C2229
:1041900002FB0102D0F84803C2E9E20C4FF0010C27
:1041A00082F86AC34FF0020C184682F874C3FEF717
:1041B000CDFF019B042283F85D23A5E790F84423FB
:1041C000024492F8C428012A42D0052A48D0042A81
:1041D00042D0D3F83028D3F8580341F28831121A6C
:1041E0008A4291D940F60532A3F85C238CE7FFF7A9
:1041F000DFFE89E790F8441301932C2202FB0102B1
:104200004FF0010C82F86AC300204FF0020CC2E9A3
:10421000E20082F874C31846FEF798FF019B08225B
:1042200083F85D2370E790F84423024492F8C42891
:10423000012ACAD10D2280F85D2365E708200E21EE
:10424000002283F85C03197183F8562304205CE78D
:10425000092280F85D2357E70B2283F85D2353E79B
:104260000C2283F85D234FE7180400208379012B8B
:1042700009D14FF0020C80F806C0C0F84813A0F82E
:10428000542380F85D330020704700BF62F07F0246
:1042900080F84C2303F47F424FF0060CB2F5407FC8
:1042A00080F84DC3A0F84E33A0F8521310D000236D
:1042B0008279A0F85033012A08D102238371009B30
:1042C000C0F84833A0F8541380F85D2300207047ED
:1042D00013F0FF03ECD0EE2B40F2094214BF13465B
:1042E0000023E5E70B7883724B78C3724B88838198
:1042F0000B7983734B79C3738B790374CB794374D4
:10430000082A0DD90B8943824B8983828B89C3820A
:104310008B7B0376CB7B43760B7C83764B7CC3769F
:10432000704700BF0B782DE9F04103774B78437756
:10433000B1F802E0A0F81EE00B7980F820304B794C
:1043400080F821308B7980F82230CB7980F82330C7
:104350000B7A80F82430092A0ED905460027092255
:1043600008E00B781944134491F801C0BCF1040F24
:104370009AB204D09645F4D80020BDE8F0810B78BD
:1043800085F826304B7885F827308B7885F82830EB
:10439000CB7885F829300E7985F82A604B7985F835
:1043A0002B308B7985F82C30CB7985F82D300B7A32
:1043B00085F82E3046B3322303FB07F84FF0000C8C
:1043C00020E00B78194413444C78052C9AB217D18D
:1043D0000CF1010C08EBCC0303440C7883F8284063
:1043E0004C7883F829408C7883F82A40CC7883F87D
:1043F0002B408C889C858C7983F82E405FFA8CFC4E
:10440000B44501D29645DCD87B1C052B1F4605F12F
:104410003205AFD10020BDE8F08100BFF0B590F8C3
:104420002040F4B11F4615468446002306E0FF2DC8
:1044300010D00133A3420CF1320C12D09CF82B2087
:104440008A42D8B2E64601D0FF290CD19EF82C2032
:10445000AA42ECD19EF82D20BA4201D0FF2FE8D11C
:10446000F0BDFF20F0BD60461A46531C00F1320C2F
:10447000A34202F10202E646F3D09CF82B608E4282
:104480000CD000F1640E94427046EAD09EF82B30B6
:104490008B42EAD1D0B2F4461346D7E7D8B2D5E77B
:1044A0004378032B00D0704790F800C0ACF10203B2
:1044B0009342A8BF13469AB252B1002300EB030CFB
:1044C00002339BB29CF802C001F801CB9A42F5D8A6
:1044D00000230B70704700BF8379A0F852134FF48C
:1044E000D06C4FF48072012BA0F84CC3C0F84E235F
:1044F0000BD14FF0020C00F5C56280F806C0C0F881
:104500004823A0F8541380F85D330020704700BFA3
:104510008379A0F852134FF4D06C4FF40072012B42
:10452000A0F84CC3C0F84E230BD14FF0020C00F59D
:10453000C56280F806C0C0F84823A0F8541380F87C
:104540005D330020704700BF41F440714FF4D062EA
:10455000A0F84E1311F0FF01A0F84C23A0F852333D
:1045600005D0EE2940F2094214BF1146002182799C
:10457000A0F85013012A0BD14FF0020C00F5C561D1
:1045800080F806C0C0F84813A0F8543380F85D23C3
:10459000002070478279A0F84E134FF4106C00236E
:1045A000012AA0F84CC3C0F8503307D10221817111
:1045B000C0F84833A0F8543380F85D2300207047DA
:1045C0008279A0F84E134FF4A06C0023012AA0F8C2
:1045D0004CC3C0F8503307D102218171C0F8483371
:1045E000A0F8543380F85D230020704790F806C08F
:1045F000A0F84E2340F60133A0F84C33BCF1010F74
:104600004FF00003A0F85233A0F8501307D1022254
:104610008271C0F84833A0F8543380F85DC300209D
:10462000704700BF90F806C0A0F84E134FF44073D7
:10463000A0F84C33BCF1010F4FF00003A0F8523347
:10464000A0F8502307D102228271C0F84833A0F8A5
:10465000543380F85DC30020704700BF90F806C057
:10466000A0F84E134FF48073A0F84C33BCF1010F47
:104670004FF00003A0F85233A0F8502307D10222D4
:104680008271C0F84833A0F8543380F85DC300202D
:10469000704700BF08B590F85D3353B98279A0F830
:1046A00052334FF4817C012AC0F84CC3A0F8501358
:1046B00008D000221146FEF751FF003818BF012034
:1046C000400008BD02218171C0F84833A0F854337E
:1046D00080F85D23EDE700BFF0B504688446202034
:1046E00001FB004505F5A0629368D66833409F063C
:1046F00083B002D5906003B0F0BD1E078E4631D462
:1047000058050E4667464CD498053DD413F0010079
:104710005BD02C2303FB01C30121C3F87C13916000
:10472000D5F80035C3F38143022B05D0D5F8003509
:1047300013F4402F40F08F80D36843F00203D3601E
:10474000204631460192FDF7A7FB019A10239360A2
:104750002C2303FB067393F8842382F0010283F871
:104760008423C8E7D36843F00203D3602C2303FB00
:1047700001CC2046052318249460CCF87C3303B088
:10478000BDE8F040FDF788BBD36843F00203D36077
:1047900020460192FDF780FB019A4FF4007393606D
:1047A000A9E7D36843F00203D36020460192FDF7E6
:1047B00073FB2C23019A03FB06734FF482600821DC
:1047C0009060C3F87C1303B0F0BD13F0020F30D13A
:1047D00013F0800C40F08E80D80640F18580D5F82B
:1047E0000035C3F38143032B00F0BF80D5F80035BB
:1047F000C3F38143022B04D0D5F8003513F4402FC6
:104800000ED107EB86030021C3F83418D36843F0B8
:104810000203D360204631460192FDF73DFB019A29
:104820002C2303FB067C03211023CCF87C1393601C
:1048300061E7D36860F34103D3602C2303FB01C31A
:10484000D3F87C33013B072B30D8DFE803F0482F47
:10485000372F32152F15D5F80035C3F38143032BBD
:10486000D5F800355FD0C3F38142012A134604BF57
:10487000BA1982F8C4386BE70CEB8E01F444D1F816
:1048800034380133032B96BF184604230223C1F8A2
:1048900034088CF8C438D5F8003513F4402F4AD0CA
:1048A000D5F80035C3F38143022B44D00223936033
:1048B00021E7F44405238CF8C438F7E7D5F8003530
:1048C00013F4402F44D0D5F80035C3F38143022BB5
:1048D0003ED007EB060C02238CF8C438E6E7F4441C
:1048E00001238CF8C438E1E7DB0544BF4FF4807343
:1048F000936000E7D36843F00203D3602C2303FBEB
:10490000017320460624C3F87C430192FDF7C4FAE4
:1049100007EB860C019ADCF8343880210133CCF89F
:1049200034389160E7E643F00053C5F80035BB1911
:1049300083F8C4180CE7D5F8003523F08043C5F898
:104940000035D5F8003543F00043C5F80035ADE734
:10495000D5F8003523F08043C5F80035D5F800358B
:1049600043F00043C5F80035B3E707EB8103204669
:10497000C3F834C8D36843F00203D3600192FDF753
:104980008BFA019A4CE700BFF0B50668202401FBC2
:10499000046E0EF5A0629368D5682B4013EA0405F7
:1049A00083B002D0946003B0F0BD13F4007C0C46D9
:1049B000074618D0DEF80035C3F38143012B51D1EF
:1049C0002C2303FB0103084406240421C3F87C4381
:1049D00080F8C418D36840F2022165F34103D36024
:1049E000916003B0F0BDDD0724D4180700F1A18069
:1049F00013F4806040F0AB809D074BD413F080052A
:104A000040F0B880DB06CED5D36843F00203D36014
:104A100007EB81033046C3F834580192FDF73CFAA6
:104A20002C2303FB0470019A03211023C0F87C138C
:104A30009360B8E72C2303FB01030120C3F87C0338
:104A40009060DEF80035C3F381400128034617D19A
:104A50007818D16802246CF34101D160946080F829
:104A6000C438A0E7D36843F00203D3603046019214
:104A7000FDF712FA019A4FF40073936003B0F0BD92
:104A8000D36843F002033046D36003B0BDE8F04082
:104A9000FDF702BAD36860F34103D3602C2303FB14
:104AA0000173D3F87C33013B072B22D8DFE803F0F6
:104AB000292124213C04210407EB8401D1F8343856
:104AC0000133032B98BF1846C1F8340807EB0400E4
:104AD00094BF0223042380F8C438DEF8003523F0A5
:104AE0008043CEF80035DEF8003543F00043CEF8C1
:104AF00000350223936056E73819022380F8C43842
:104B0000F7E73B19012183F8C4182C2303FB047336
:104B100093F86C1302390129EBD893F8851381F0CF
:104B2000010183F88513E4E73819052380F8C438B8
:104B3000DFE7D36843F00203D3602C2303FB017348
:104B40000524082595603046C3F87C439DE7D3686B
:104B500043F00203D36030460192FDF79DF92C2308
:104B6000019A03FB04734FF4826008219060C3F83C
:104B70007C1318E7D36807EB810543F00203D36089
:104B8000D5F8344801922C2303FB01730134C5F896
:104B900034480624C3F87C433046FDF77DF9019A7A
:104BA00090239360FFE600BF2DE9F0410568D5F83A
:104BB000146407460024B6B205F5A0654FF001085D
:104BC00006E0FFF789FD0134102C05F1200510D017
:104BD00008FA04F33342E1B2F5D02B6813F4004F26
:104BE0003846EED10134FFF7CFFE102C05F1200539
:104BF000EED1BDE8F08100BF01460068836923F073
:104C000010038361026A02F4F013B3F5802F04D01D
:104C1000836943F0100383617047C2F30A13002BCA
:104C2000F6D030B502F00F024FF02C0C0CFB021442
:104C300083B0D4F8881329B300F5A06CCDE9000344
:104C40000CEB4215FCF7F2FE019BD4F88823009888
:104C50001A44C4F88823D4F890231A44C4F8902343
:104C60002B69C3F3C9436BB12B6823F080432B60DE
:104C70002B6843F000432B6094F8843383F00103E6
:104C800084F88433836943F01003836103B030BD3B
:104C900030B50168D1F840349D0783B001F58064D8
:104CA00023F01E0207D5DD0744BF4FF0010CC0F80A
:104CB00028C842F002021D0716D513F0040C42F07A
:104CC000080218D0054603F4C020B0F5802F08462E
:104CD0000CBF02210121CDE90023FDF72FF9DDE909
:104CE00000230121C5F82C18DB0648BF42F0100252
:104CF000226403B030BDC0F82CC8F5E72DE9F041BF
:104D000004686369DD0701D4BDE8F081054600F55C
:104D10003E772046FCF714FEC00600F18580204651
:104D2000FCF70EFE810176D42046FCF709FE02074F
:104D300067D42046FCF704FE83075DD42046FCF7C9
:104D4000FFFD002878DB2046FCF7FAFD860035D40D
:104D50002046FCF7F5FDC5012CD42046FCF7F0FDFC
:104D6000800221D42046FCF7EBFDC10216D4204678
:104D7000FCF7E6FD42010BD42046FCF7E1FD4304BD
:104D8000C2D520464FF48041BDE8F041FCF7DCBDC0
:104D90004FF080612046FCF7D7FDEDE74FF480111E
:104DA0002046FCF7D1FDE2E74FF400112046FCF766
:104DB000CBFDD7E73846FFF76BFFCEE7D5F8F832E3
:104DC0002E46184698460025FDF72AF80323C6F814
:104DD000205B86F8FC32E9B238460135FEF7A0F9CF
:104DE000102DF8D140460121FDF7A8F84FF00051F1
:104DF0002046FCF7A9FDABE702212046FCF7A4FD05
:104E00009CE7D5F8283B01330821C5F8283B20460C
:104E1000FCF79AFD8DE73846FFF7C6FE4FF00071AC
:104E20002046FCF791FD7FE73846FFF7E5FE1021AD
:104E30002046FCF789FD72E70C2385F8FC324FF021
:104E400000412046FCF780FD7DE700BF10B5D0F89B
:104E500060331C69637E43B1092B04D1D0F86433FD
:104E60005B6A03B19847002010BDD4E903329A422F
:104E70000CD202EB420304EB031393F8A430042B8F
:104E8000F1D8DFE803F0522F4319070009236376B6
:104E9000002010BDD2B204F11C0100F0FDFB60B394
:104EA0000128E0D1236903EB430304EB03134FF420
:104EB0008472A3F8A420D6E702EB420304EB0313A9
:104EC0009C33D2B204F11C0100F05AFBB0BB236941
:104ED00003EB430204EB02120921013382F8A41010
:104EE0002361C0E702EB420304EB03137833D2B231
:104EF00004F11C0100F0FEFA00BB236903EB43033D
:104F000004EB0313022283F8A420ACE7D2B204F12D
:104F10001C0100F083FBE0B9236903EB430304EBBE
:104F200003130322A3F8A4209DE702EB420204EB43
:104F3000021240F20113A2F8A43094E7012892D1A2
:104F4000236903EB430304EB0313042283F8A42037
:104F500089E7012887D1236903EB430304EB03139B
:104F60004FF48272A3F8A4207DE700BF10B5D0F8FB
:104F700060331C6982B09CB1E168844659B117481E
:104F8000002303EB4302013304EB0212DBB28B423A
:104F9000C2F8A400F5D32178604621B9617981B9BE
:104FA000002002B010BDCDF804C0FEF7B9F821789A
:104FB0000198FEF7B3FA6179019800232370002964
:104FC000EED00190FEF7ACF801986179FEF7A6FAF1
:104FD00000230020637102B010BD00BF000101007A
:104FE0002DE9F043D0F86023364D85B0502315618C
:104FF000082106220646FFF711FAFF285ED0322369
:1050000003FB006494F82A3094F82D20EA72002BF8
:1050100043D000274FF00209A0461CE0AB7185F891
:105020000AC0A5F808E0FEF77DFA96F809C0337AC1
:10503000AA79C1B22889CDF80090CDE9010C30469B
:105040006971FEF747FA98F82A200137FBB29A42B5
:1050500004F1080421D994F9322094F83230B4F8DC
:1050600034E094F836C0002A30461946D6DA6B7020
:1050700085F804C0A5F802E0FEF754FA96F809C0D6
:10508000337A6A78C1B26888CDF80090CDE9010C16
:1050900030462970FEF71EFAD5E70A4800F0E2FB19
:1050A000697900223046FEF743F82978002230461D
:1050B000FEF73EF8002005B0BDE8F083032005B000
:1050C000BDE8F0831C04002000B5D0F860331B69F4
:1050D0001A7E012A83B016D0022A05D00AB901220D
:1050E0001A76022003B000BD90F85D23002A36D066
:1050F000002211460193FEF731FA019B0028EED001
:105100000328EED1EBE790F85DC3BCF1000F1BD094
:10511000002211460193FEF721FA019B08B10328F2
:10512000E0D11A7B022A22D9022001210022D86074
:10513000A3F8A61083F8A42001210022A3F8D6101A
:1051400083F8D4200020CDE74FF6A16E4FF4803CC9
:10515000C0E9D3EC03F10C01FFF788F8C1E74FF485
:105160008173C0E9D3321146FFF780F8B9E7013205
:10517000012000218242DA60A3F8A60083F8A4107F
:10518000E0D0D9E7D0F860331B6901EB410103EBB4
:10519000011393F8A500704730B583B0D0F8604391
:1051A0009DF818C00D4621690CEB4C0401EB04146A
:1051B00094F8A4E0BEF1050F16D0BEF1060F05D09D
:1051C000BEF1040F1FD0022003B030BDCDE9002C8A
:1051D0001C312A4600F0A2FA034670B909230020C8
:1051E00084F8A43003B030BDCDE9002C1C312A4630
:1051F00000F0E6FA03460028F0D0012BE4D10423A6
:1052000084F8A430DFE762461C3100F045FA00283C
:10521000DAD10923012084F8A43003B030BD00BFE7
:105220002DE9F04FD0F8284883B09DF8305014B1E4
:105230000479072C03D0012003B0BDE8F08FD0F82B
:105240006043266905EB450C06EB0C1CB3469CF845
:10525000A440092CEFD19946164B736705238CF8AF
:10526000A43042F21073756103FB02F6D0F83038B7
:1052700090460F4604469A4608E0D4F8283883B191
:10528000D4F83038A3EB0A03B3420AD800954B4652
:10529000424639462046FFF77FFF0228EDD0002026
:1052A000CAE705EB45050BEB0515092385F8A43086
:1052B000C1E700BF1C0400202DE9F04FD0F82848BA
:1052C00083B09DF8305014B10479072C03D001202D
:1052D00003B0BDE8F08FD0F86043266905EB450CBC
:1052E00006EB0C1CB3469CF8A440092CEFD1994660
:1052F000164B736706238CF8A43042F21073756165
:1053000003FB02F6D0F8303890460F4604469A4622
:1053100008E0D4F8283883B1D4F83038A3EB0A0376
:10532000B3420AD800954B46424639462046FFF71D
:1053300033FF0228EDD00020CAE705EB45050BEB53
:105340000515092385F8A430C1E700BF1C0400201F
:1053500070B591F851308D6D013B82B00C46064618
:10536000092B0FD8DFE803F02D37444D555E056952
:1053700080110D23297804F14002FDF7A5FF0823D1
:1053800084F85130022002B070BD6A79A979FFF724
:1053900081F90028F6D1697901902C2202FB016283
:1053A000304692F88523C2F10102D2B2FDF7C0FE69
:1053B000019A29783046FDF7BBFE092384F8513065
:1053C000E0E71F23697904F12002FDF793FF022330
:1053D00084F85130D6E76979FEF7BCF801286AD025
:1053E000022850D00528CDD10A2384F85130C9E7CE
:1053F0006B884A6D2978FDF767FF042384F85130E4
:10540000C0E72978FEF7A6F8012840D00528B9D1D1
:10541000D3E72B894A6D6979FDF76CFF062384F881
:105420005130AFE76979FEF795F801284DD0022891
:10543000D8D1052384F85130A4E72978FEF78AF8FB
:105440000128E3D12A4B226C4FF480719A42A4F8D0
:10545000501098D1626C636A9A4294D194F84C00CF
:10546000003818BF01208EE72A786978FFF712F913
:10547000002887D1072384F8513002462978304626
:10548000FDF756FE7EE7012384F851307AE7A26AE1
:105490006B889A4209D9D21AA262626D1A44626577
:1054A00029783046FDF710FF6CE700220723A2623F
:1054B00084F8513066E7A36AABB194F82C30802BA6
:1054C000B7D1032384F851305CE7A26A2B899A4252
:1054D000EBD9D21AA262626D1A44626569793046CC
:1054E000FDF708FF4EE7072384F851304AE700BF75
:1054F0005553425310B591F850C00B46BCF1000F04
:105500000ED0BCF1010F01D0022010BD0C46FFF7F8
:105510001FFF70B30128F7D1002384F8503010BD6D
:1055200024211548C3F833C018629962134883F8E0
:105530003310996D586202EB420001EB001183F8C1
:105540002D205201C3F82FC040F201104FF0800E01
:10555000783183F8302041F20C22A3F8500083F810
:105560002CE0C3F837C0C3F83BC05965DA85022088
:10557000CBE784F8500010BD555342438070605013
:1055800000B591F850E083B08C46BEF1000F12D008
:10559000BEF1010F02D0022003B000BDCDE900131F
:1055A000FFF7D6FE009A48B30128F4D1002382F811
:1055B000503003B000BD174B1748896DCCF8203030
:1055C0000823CCE9090380238CF82C3042F20C53D9
:1055D000CCF82FE08CF82D20ACF82E30520140F2A0
:1055E0000113CCF833E0CCF837E0CCF83BE08CF892
:1055F0003020C1F870C0ACF85030CCE71168019B86
:1056000009BA1960D18849BA89B2596082F8500044
:1056100003B000BD555342438070605091F850C0B4
:105620000B46BCF1000F0FD0BCF1010F01D00220DE
:10563000704710B50C46FFF78BFE18B3012824D134
:10564000002384F8503010BD11481249C3F82FC010
:10565000C3E908010C21500183F82E1040F201111A
:1056600083F83000C3F828C083F82CC0C3F833C0D7
:10567000C3F837C0C3F83BC083F82D20A3F85010FF
:105680000220704784F8500010BD022010BD00BFFA
:10569000555342438070605091F850C00B46BCF1A6
:1056A000000F0FD0BCF1010F01D00220704710B5E0
:1056B0000C46FFF74DFE38B3012828D1002384F8AB
:1056C000503010BD1348186213485862802083F888
:1056D0002C004FF443701221C3F82FC083F82D2003
:1056E000D885520140F20110C3F833C0A3F850002E
:1056F0009962C3F837C0C3F83BC083F8302083F801
:1057000033105B650220704784F8500010BD022002
:1057100010BD00BF555342438070605010B591F8E2
:1057200050E01C468C469DF80C30BEF1000F0ED0A8
:10573000BEF1010F01D0022010BD0C46FFF708FE9C
:10574000B0B30128F7D1002384F8503010BD4C6568
:105750008CF82D305B018CF83030130ACCF833E034
:105760008CF83330029B8CF8342042F60C201B0A54
:1057700040F20111ACF82E008CF83630100E029B6E
:105780008CF83100ACF85010100C0B490B4ACCF8D7
:1057900037E08CF837305B028CF83200CCE9081225
:1057A0008CF82CE0CCF83BE0CCF828300220C3E7A2
:1057B00084F8500010BD00BF5553424380706050C4
:1057C00010B591F850E01C468C469DF80C30BEF1A7
:1057D000000F0ED0BEF1010F01D0022010BD0C460B
:1057E000FFF7B6FDB8B30128F7D1002384F8503095
:1057F00010BD4C658CF82D305B018CF83030130AED
:10580000CCF833E08CF83330029BCCF837E042F62A
:105810000A001B0AACF82E00100E40F201118CF8A1
:1058200031008CF83630100C029B8CF83200ACF84A
:1058300050100A480A498CF834208CF837308022FE
:105840005B02CCE90801CCF83BE0CCF828308CF8BE
:105850002C200220C2E784F8500010BD555342436B
:105860008070605003460649596700204FF48072EB
:10587000C3E90300188398765861A3F86C20704739
:105880001C040020016879B10A4601E03A2B05D0DA
:1058900012F8013B202BF9D8002070470B78302BF1
:1058A00002D102318A4202D04FF0FF3070470260CD
:1058B000F2E700BF48B10268034632B1107820B168
:1058C000B3F804C0D088844503D0002309200B60BE
:1058D000704700B583B05078CDE9001306F03EFF65
:1058E00010F00100009904D1019B1B680B6003B00C
:1058F00000BD092000230B6003B000BD38B5C3789C
:105900000BB9002038BD00F13001C26A0446012302
:1059100040780D4606F06CFF80B9E16A236AA269FF
:10592000E070CB1A9342ECD2A378022BE9D10A445F
:1059300060780123294606F05BFFE2E7012038BDCD
:10594000F8B505460C46FFF7D9FF30BB6B69A11EC1
:10595000023B99423BBF6B89AE6A064601FB036678
:1059600005F13007EE624FF400720021384621F055
:10597000C9FF6B891C466BB1002402E001349C42D4
:1059800008D2012368783219394606F031FF6B8955
:105990000028F3D0E01A18BF0120F8BD30B5C37855
:1059A00083B0044663B92378032B24D000226078A7
:1059B000114606F04DFF003818BF012003B030BD7E
:1059C00000F13001C26A407801230D4606F010FF55
:1059D000002836D1E16A236AA269E070CB1A9342AB
:1059E000E1D2A378022BDED10A4460780123294654
:1059F00006F0FEFED7E72379012BD7D104F1300062
:105A00004FF4007200210193054621F07BFF0E4AFE
:105A10002263E268C4F81C22E2690C49019BC4F8C5
:105A200014124AF65520A4F82E0201322069C4F857
:105A30001802E2626078294606F0DAFE002323713C
:105A4000B4E7012003B030BD52526141727241612E
:105A5000C26A8A4201D10020704730B5C3780D4632
:105A600083B0044600F1300163B9607801232A460F
:105A700006F08EFE10B9E56203B030BD01204FF094
:105A8000FF35F8E740780191012306F0B1FE98B99F
:105A9000D4F82CC0236AA2690199E070ACEB03032F
:105AA0009342E2D2A378022BDFD1607862440123D3
:105AB00006F09EFE0199D8E70120DDE7F0B50578F4
:105AC000022D83B00C46164628D0032D11D0012D8F
:105AD0003BD1016A019004EB540201EB5221009288
